{
  "contractName": "DigitalAsset",
  "abi": [
    {
      "inputs": [],
      "stateMutability": "nonpayable",
      "type": "constructor"
    },
    {
      "anonymous": false,
      "inputs": [
        {
          "indexed": true,
          "internalType": "address",
          "name": "owner",
          "type": "address"
        },
        {
          "indexed": true,
          "internalType": "address",
          "name": "approved",
          "type": "address"
        },
        {
          "indexed": true,
          "internalType": "uint256",
          "name": "tokenId",
          "type": "uint256"
        }
      ],
      "name": "Approval",
      "type": "event"
    },
    {
      "anonymous": false,
      "inputs": [
        {
          "indexed": true,
          "internalType": "address",
          "name": "owner",
          "type": "address"
        },
        {
          "indexed": true,
          "internalType": "address",
          "name": "operator",
          "type": "address"
        },
        {
          "indexed": false,
          "internalType": "bool",
          "name": "approved",
          "type": "bool"
        }
      ],
      "name": "ApprovalForAll",
      "type": "event"
    },
    {
      "anonymous": false,
      "inputs": [
        {
          "indexed": true,
          "internalType": "address",
          "name": "previousOwner",
          "type": "address"
        },
        {
          "indexed": true,
          "internalType": "address",
          "name": "newOwner",
          "type": "address"
        }
      ],
      "name": "OwnershipTransferred",
      "type": "event"
    },
    {
      "anonymous": false,
      "inputs": [
        {
          "indexed": true,
          "internalType": "address",
          "name": "from",
          "type": "address"
        },
        {
          "indexed": true,
          "internalType": "address",
          "name": "to",
          "type": "address"
        },
        {
          "indexed": true,
          "internalType": "uint256",
          "name": "tokenId",
          "type": "uint256"
        }
      ],
      "name": "Transfer",
      "type": "event"
    },
    {
      "inputs": [],
      "name": "_assetItemIds",
      "outputs": [
        {
          "internalType": "uint256",
          "name": "",
          "type": "uint256"
        }
      ],
      "stateMutability": "view",
      "type": "function",
      "constant": true
    },
    {
      "inputs": [],
      "name": "_tokenIds",
      "outputs": [
        {
          "internalType": "uint256",
          "name": "",
          "type": "uint256"
        }
      ],
      "stateMutability": "view",
      "type": "function",
      "constant": true
    },
    {
      "inputs": [
        {
          "internalType": "address",
          "name": "to",
          "type": "address"
        },
        {
          "internalType": "uint256",
          "name": "tokenId",
          "type": "uint256"
        }
      ],
      "name": "approve",
      "outputs": [],
      "stateMutability": "nonpayable",
      "type": "function"
    },
    {
      "inputs": [
        {
          "internalType": "address",
          "name": "owner",
          "type": "address"
        }
      ],
      "name": "balanceOf",
      "outputs": [
        {
          "internalType": "uint256",
          "name": "",
          "type": "uint256"
        }
      ],
      "stateMutability": "view",
      "type": "function",
      "constant": true
    },
    {
      "inputs": [],
      "name": "baseURI",
      "outputs": [
        {
          "internalType": "string",
          "name": "",
          "type": "string"
        }
      ],
      "stateMutability": "view",
      "type": "function",
      "constant": true
    },
    {
      "inputs": [
        {
          "internalType": "uint256",
          "name": "tokenId",
          "type": "uint256"
        }
      ],
      "name": "getApproved",
      "outputs": [
        {
          "internalType": "address",
          "name": "",
          "type": "address"
        }
      ],
      "stateMutability": "view",
      "type": "function",
      "constant": true
    },
    {
      "inputs": [
        {
          "internalType": "address",
          "name": "owner",
          "type": "address"
        },
        {
          "internalType": "address",
          "name": "operator",
          "type": "address"
        }
      ],
      "name": "isApprovedForAll",
      "outputs": [
        {
          "internalType": "bool",
          "name": "",
          "type": "bool"
        }
      ],
      "stateMutability": "view",
      "type": "function",
      "constant": true
    },
    {
      "inputs": [],
      "name": "name",
      "outputs": [
        {
          "internalType": "string",
          "name": "",
          "type": "string"
        }
      ],
      "stateMutability": "view",
      "type": "function",
      "constant": true
    },
    {
      "inputs": [],
      "name": "owner",
      "outputs": [
        {
          "internalType": "address",
          "name": "",
          "type": "address"
        }
      ],
      "stateMutability": "view",
      "type": "function",
      "constant": true
    },
    {
      "inputs": [
        {
          "internalType": "uint256",
          "name": "tokenId",
          "type": "uint256"
        }
      ],
      "name": "ownerOf",
      "outputs": [
        {
          "internalType": "address",
          "name": "",
          "type": "address"
        }
      ],
      "stateMutability": "view",
      "type": "function",
      "constant": true
    },
    {
      "inputs": [
        {
          "internalType": "address",
          "name": "dest",
          "type": "address"
        }
      ],
      "name": "payments",
      "outputs": [
        {
          "internalType": "uint256",
          "name": "",
          "type": "uint256"
        }
      ],
      "stateMutability": "view",
      "type": "function",
      "constant": true
    },
    {
      "inputs": [],
      "name": "renounceOwnership",
      "outputs": [],
      "stateMutability": "nonpayable",
      "type": "function"
    },
    {
      "inputs": [
        {
          "internalType": "address",
          "name": "from",
          "type": "address"
        },
        {
          "internalType": "address",
          "name": "to",
          "type": "address"
        },
        {
          "internalType": "uint256",
          "name": "tokenId",
          "type": "uint256"
        }
      ],
      "name": "safeTransferFrom",
      "outputs": [],
      "stateMutability": "nonpayable",
      "type": "function"
    },
    {
      "inputs": [
        {
          "internalType": "address",
          "name": "from",
          "type": "address"
        },
        {
          "internalType": "address",
          "name": "to",
          "type": "address"
        },
        {
          "internalType": "uint256",
          "name": "tokenId",
          "type": "uint256"
        },
        {
          "internalType": "bytes",
          "name": "_data",
          "type": "bytes"
        }
      ],
      "name": "safeTransferFrom",
      "outputs": [],
      "stateMutability": "nonpayable",
      "type": "function"
    },
    {
      "inputs": [
        {
          "internalType": "address",
          "name": "operator",
          "type": "address"
        },
        {
          "internalType": "bool",
          "name": "approved",
          "type": "bool"
        }
      ],
      "name": "setApprovalForAll",
      "outputs": [],
      "stateMutability": "nonpayable",
      "type": "function"
    },
    {
      "inputs": [
        {
          "internalType": "bytes4",
          "name": "interfaceId",
          "type": "bytes4"
        }
      ],
      "name": "supportsInterface",
      "outputs": [
        {
          "internalType": "bool",
          "name": "",
          "type": "bool"
        }
      ],
      "stateMutability": "view",
      "type": "function",
      "constant": true
    },
    {
      "inputs": [],
      "name": "symbol",
      "outputs": [
        {
          "internalType": "string",
          "name": "",
          "type": "string"
        }
      ],
      "stateMutability": "view",
      "type": "function",
      "constant": true
    },
    {
      "inputs": [
        {
          "internalType": "uint256",
          "name": "index",
          "type": "uint256"
        }
      ],
      "name": "tokenByIndex",
      "outputs": [
        {
          "internalType": "uint256",
          "name": "",
          "type": "uint256"
        }
      ],
      "stateMutability": "view",
      "type": "function",
      "constant": true
    },
    {
      "inputs": [
        {
          "internalType": "address",
          "name": "owner",
          "type": "address"
        },
        {
          "internalType": "uint256",
          "name": "index",
          "type": "uint256"
        }
      ],
      "name": "tokenOfOwnerByIndex",
      "outputs": [
        {
          "internalType": "uint256",
          "name": "",
          "type": "uint256"
        }
      ],
      "stateMutability": "view",
      "type": "function",
      "constant": true
    },
    {
      "inputs": [
        {
          "internalType": "uint256",
          "name": "tokenId",
          "type": "uint256"
        }
      ],
      "name": "tokenURI",
      "outputs": [
        {
          "internalType": "string",
          "name": "",
          "type": "string"
        }
      ],
      "stateMutability": "view",
      "type": "function",
      "constant": true
    },
    {
      "inputs": [],
      "name": "totalSupply",
      "outputs": [
        {
          "internalType": "uint256",
          "name": "",
          "type": "uint256"
        }
      ],
      "stateMutability": "view",
      "type": "function",
      "constant": true
    },
    {
      "inputs": [
        {
          "internalType": "address",
          "name": "from",
          "type": "address"
        },
        {
          "internalType": "address",
          "name": "to",
          "type": "address"
        },
        {
          "internalType": "uint256",
          "name": "tokenId",
          "type": "uint256"
        }
      ],
      "name": "transferFrom",
      "outputs": [],
      "stateMutability": "nonpayable",
      "type": "function"
    },
    {
      "inputs": [
        {
          "internalType": "address",
          "name": "newOwner",
          "type": "address"
        }
      ],
      "name": "transferOwnership",
      "outputs": [],
      "stateMutability": "nonpayable",
      "type": "function"
    },
    {
      "inputs": [
        {
          "internalType": "address payable",
          "name": "payee",
          "type": "address"
        }
      ],
      "name": "withdrawPayments",
      "outputs": [],
      "stateMutability": "nonpayable",
      "type": "function"
    },
    {
      "inputs": [
        {
          "internalType": "uint256",
          "name": "price",
          "type": "uint256"
        },
        {
          "internalType": "string",
          "name": "tokenURI",
          "type": "string"
        }
      ],
      "name": "addAssetItem",
      "outputs": [],
      "stateMutability": "nonpayable",
      "type": "function"
    },
    {
      "inputs": [
        {
          "internalType": "uint256",
          "name": "id",
          "type": "uint256"
        }
      ],
      "name": "getAssetItem",
      "outputs": [
        {
          "internalType": "uint256",
          "name": "",
          "type": "uint256"
        },
        {
          "internalType": "uint256",
          "name": "",
          "type": "uint256"
        },
        {
          "internalType": "string",
          "name": "",
          "type": "string"
        }
      ],
      "stateMutability": "view",
      "type": "function",
      "constant": true
    },
    {
      "inputs": [
        {
          "internalType": "uint256",
          "name": "assetItemId",
          "type": "uint256"
        }
      ],
      "name": "purchaseAssetItem",
      "outputs": [],
      "stateMutability": "payable",
      "type": "function",
      "payable": true
    },
    {
      "inputs": [],
      "name": "getPayments",
      "outputs": [],
      "stateMutability": "nonpayable",
      "type": "function"
    },
    {
      "inputs": [],
      "name": "toggleCircuitBreaker",
      "outputs": [],
      "stateMutability": "nonpayable",
      "type": "function"
    }
  ],
  "bytecode": "0x60806040526001600f60006101000a81548160ff0219169083151502179055503480156200002c57600080fd5b506040518060400160405280600c81526020017f4469676974616c417373657400000000000000000000000000000000000000008152506040518060400160405280600381526020017f4142430000000000000000000000000000000000000000000000000000000000815250620000b16301ffc9a760e01b6200029160201b60201c565b8160069080519060200190620000c9929190620003a2565b508060079080519060200190620000e2929190620003a2565b50620000fb6380ac58cd60e01b6200029160201b60201c565b62000113635b5e139f60e01b6200029160201b60201c565b6200012b63780e9d6360e01b6200029160201b60201c565b50506040516200013b9062000429565b604051809103906000f08015801562000158573d6000803e3d6000fd5b50600a60006101000a81548173ffffffffffffffffffffffffffffffffffffffff021916908373ffffffffffffffffffffffffffffffffffffffff1602179055506000620001ab6200039a60201b60201c565b905080600b60006101000a81548173ffffffffffffffffffffffffffffffffffffffff021916908373ffffffffffffffffffffffffffffffffffffffff1602179055508073ffffffffffffffffffffffffffffffffffffffff16600073ffffffffffffffffffffffffffffffffffffffff167f8be0079c531659141344cd1fd0a4f28419497f9722a3daafe3b4186f6b6457e060405160405180910390a35033600f60016101000a81548173ffffffffffffffffffffffffffffffffffffffff021916908373ffffffffffffffffffffffffffffffffffffffff1602179055506200045f565b63ffffffff60e01b817bffffffffffffffffffffffffffffffffffffffffffffffffffffffff191614156200032e576040517f08c379a000000000000000000000000000000000000000000000000000000000815260040180806020018281038252601c8152602001807f4552433136353a20696e76616c696420696e746572666163652069640000000081525060200191505060405180910390fd5b6001600080837bffffffffffffffffffffffffffffffffffffffffffffffffffffffff19167bffffffffffffffffffffffffffffffffffffffffffffffffffffffff1916815260200190815260200160002060006101000a81548160ff02191690831515021790555050565b600033905090565b828054600181600116156101000203166002900490600052602060002090601f016020900481019282601f10620003e557805160ff191683800117855562000416565b8280016001018555821562000416579182015b8281111562000415578251825591602001919060010190620003f8565b5b50905062000425919062000437565b5090565b610cca806200429383390190565b6200045c91905b80821115620004585760008160009055506001016200043e565b5090565b90565b613e24806200046f6000396000f3fe6080604052600436106101c25760003560e01c8063715018a6116100f7578063b88d4fde11610095578063e2982c2111610064578063e2982c2114610bd4578063e985e9c514610c39578063f2fde38b14610cc2578063fe550dd014610d13576101c2565b8063b88d4fde146109e0578063c87b56dd14610af2578063d56bd14214610ba6578063d5eb63cc14610bbd576101c2565b8063a22cb465116100d1578063a22cb46514610868578063aa46a400146108c5578063b515d653146108f0578063b67c085c146109b2576101c2565b8063715018a61461076a5780638da5cb5b1461078157806395d89b41146107d8576101c2565b806331b3eb94116101645780634f6ccce71161013e5780634f6ccce7146105ab5780636352211e146105fa5780636c0360eb1461067557806370a0823114610705576101c2565b806331b3eb94146104b457806342842e0e146105055780634396519614610580576101c2565b8063095ea7b3116101a0578063095ea7b31461034457806318160ddd1461039f57806323b872dd146103ca5780632f745c5914610445576101c2565b806301ffc9a7146101c757806306fdde0314610239578063081812fc146102c9575b600080fd5b3480156101d357600080fd5b5061021f600480360360208110156101ea57600080fd5b8101908080357bffffffffffffffffffffffffffffffffffffffffffffffffffffffff19169060200190929190505050610de5565b604051808215151515815260200191505060405180910390f35b34801561024557600080fd5b5061024e610e4c565b6040518080602001828103825283818151815260200191508051906020019080838360005b8381101561028e578082015181840152602081019050610273565b50505050905090810190601f1680156102bb5780820380516001836020036101000a031916815260200191505b509250505060405180910390f35b3480156102d557600080fd5b50610302600480360360208110156102ec57600080fd5b8101908080359060200190929190505050610eee565b604051808273ffffffffffffffffffffffffffffffffffffffff1673ffffffffffffffffffffffffffffffffffffffff16815260200191505060405180910390f35b34801561035057600080fd5b5061039d6004803603604081101561036757600080fd5b81019080803573ffffffffffffffffffffffffffffffffffffffff16906020019092919080359060200190929190505050610f89565b005b3480156103ab57600080fd5b506103b46110cd565b6040518082815260200191505060405180910390f35b3480156103d657600080fd5b50610443600480360360608110156103ed57600080fd5b81019080803573ffffffffffffffffffffffffffffffffffffffff169060200190929190803573ffffffffffffffffffffffffffffffffffffffff169060200190929190803590602001909291905050506110de565b005b34801561045157600080fd5b5061049e6004803603604081101561046857600080fd5b81019080803573ffffffffffffffffffffffffffffffffffffffff16906020019092919080359060200190929190505050611154565b6040518082815260200191505060405180910390f35b3480156104c057600080fd5b50610503600480360360208110156104d757600080fd5b81019080803573ffffffffffffffffffffffffffffffffffffffff1690602001909291905050506111af565b005b34801561051157600080fd5b5061057e6004803603606081101561052857600080fd5b81019080803573ffffffffffffffffffffffffffffffffffffffff169060200190929190803573ffffffffffffffffffffffffffffffffffffffff1690602001909291908035906020019092919050505061126b565b005b34801561058c57600080fd5b5061059561128b565b6040518082815260200191505060405180910390f35b3480156105b757600080fd5b506105e4600480360360208110156105ce57600080fd5b8101908080359060200190929190505050611291565b6040518082815260200191505060405180910390f35b34801561060657600080fd5b506106336004803603602081101561061d57600080fd5b81019080803590602001909291905050506112b4565b604051808273ffffffffffffffffffffffffffffffffffffffff1673ffffffffffffffffffffffffffffffffffffffff16815260200191505060405180910390f35b34801561068157600080fd5b5061068a6112eb565b6040518080602001828103825283818151815260200191508051906020019080838360005b838110156106ca5780820151818401526020810190506106af565b50505050905090810190601f1680156106f75780820380516001836020036101000a031916815260200191505b509250505060405180910390f35b34801561071157600080fd5b506107546004803603602081101561072857600080fd5b81019080803573ffffffffffffffffffffffffffffffffffffffff16906020019092919050505061138d565b6040518082815260200191505060405180910390f35b34801561077657600080fd5b5061077f611462565b005b34801561078d57600080fd5b506107966115ed565b604051808273ffffffffffffffffffffffffffffffffffffffff1673ffffffffffffffffffffffffffffffffffffffff16815260200191505060405180910390f35b3480156107e457600080fd5b506107ed611617565b6040518080602001828103825283818151815260200191508051906020019080838360005b8381101561082d578082015181840152602081019050610812565b50505050905090810190601f16801561085a5780820380516001836020036101000a031916815260200191505b509250505060405180910390f35b34801561087457600080fd5b506108c36004803603604081101561088b57600080fd5b81019080803573ffffffffffffffffffffffffffffffffffffffff1690602001909291908035151590602001909291905050506116b9565b005b3480156108d157600080fd5b506108da611871565b6040518082815260200191505060405180910390f35b3480156108fc57600080fd5b506109296004803603602081101561091357600080fd5b8101908080359060200190929190505050611877565b6040518084815260200183815260200180602001828103825283818151815260200191508051906020019080838360005b8381101561097557808201518184015260208101905061095a565b50505050905090810190601f1680156109a25780820380516001836020036101000a031916815260200191505b5094505050505060405180910390f35b6109de600480360360208110156109c857600080fd5b8101908080359060200190929190505050611a75565b005b3480156109ec57600080fd5b50610af060048036036080811015610a0357600080fd5b81019080803573ffffffffffffffffffffffffffffffffffffffff169060200190929190803573ffffffffffffffffffffffffffffffffffffffff1690602001909291908035906020019092919080359060200190640100000000811115610a6a57600080fd5b820183602082011115610a7c57600080fd5b80359060200191846001830284011164010000000083111715610a9e57600080fd5b91908080601f016020809104026020016040519081016040528093929190818152602001838380828437600081840152601f19601f820116905080830192505050505050509192919290505050611cb6565b005b348015610afe57600080fd5b50610b2b60048036036020811015610b1557600080fd5b8101908080359060200190929190505050611d2e565b6040518080602001828103825283818151815260200191508051906020019080838360005b83811015610b6b578082015181840152602081019050610b50565b50505050905090810190601f168015610b985780820380516001836020036101000a031916815260200191505b509250505060405180910390f35b348015610bb257600080fd5b50610bbb612017565b005b348015610bc957600080fd5b50610bd2612022565b005b348015610be057600080fd5b50610c2360048036036020811015610bf757600080fd5b81019080803573ffffffffffffffffffffffffffffffffffffffff1690602001909291905050506120a8565b6040518082815260200191505060405180910390f35b348015610c4557600080fd5b50610ca860048036036040811015610c5c57600080fd5b81019080803573ffffffffffffffffffffffffffffffffffffffff169060200190929190803573ffffffffffffffffffffffffffffffffffffffff16906020019092919050505061218b565b604051808215151515815260200191505060405180910390f35b348015610cce57600080fd5b50610d1160048036036020811015610ce557600080fd5b81019080803573ffffffffffffffffffffffffffffffffffffffff16906020019092919050505061221f565b005b348015610d1f57600080fd5b50610de360048036036040811015610d3657600080fd5b810190808035906020019092919080359060200190640100000000811115610d5d57600080fd5b820183602082011115610d6f57600080fd5b80359060200191846001830284011164010000000083111715610d9157600080fd5b91908080601f016020809104026020016040519081016040528093929190818152602001838380828437600081840152601f19601f82011690508083019250505050505050919291929050505061242f565b005b6000806000837bffffffffffffffffffffffffffffffffffffffffffffffffffffffff19167bffffffffffffffffffffffffffffffffffffffffffffffffffffffff1916815260200190815260200160002060009054906101000a900460ff169050919050565b606060068054600181600116156101000203166002900480601f016020809104026020016040519081016040528092919081815260200182805460018160011615610100020316600290048015610ee45780601f10610eb957610100808354040283529160200191610ee4565b820191906000526020600020905b815481529060010190602001808311610ec757829003601f168201915b5050505050905090565b6000610ef9826125bb565b610f4e576040517f08c379a000000000000000000000000000000000000000000000000000000000815260040180806020018281038252602c815260200180613ced602c913960400191505060405180910390fd5b6004600083815260200190815260200160002060009054906101000a900473ffffffffffffffffffffffffffffffffffffffff169050919050565b6000610f94826112b4565b90508073ffffffffffffffffffffffffffffffffffffffff168373ffffffffffffffffffffffffffffffffffffffff16141561101b576040517f08c379a0000000000000000000000000000000000000000000000000000000008152600401808060200182810382526021815260200180613d9d6021913960400191505060405180910390fd5b8073ffffffffffffffffffffffffffffffffffffffff1661103a6125d8565b73ffffffffffffffffffffffffffffffffffffffff1614806110695750611068816110636125d8565b61218b565b5b6110be576040517f08c379a0000000000000000000000000000000000000000000000000000000008152600401808060200182810382526038815260200180613c406038913960400191505060405180910390fd5b6110c883836125e0565b505050565b60006110d96002612699565b905090565b6110ef6110e96125d8565b826126ae565b611144576040517f08c379a0000000000000000000000000000000000000000000000000000000008152600401808060200182810382526031815260200180613dbe6031913960400191505060405180910390fd5b61114f8383836127a2565b505050565b60006111a782600160008673ffffffffffffffffffffffffffffffffffffffff1673ffffffffffffffffffffffffffffffffffffffff1681526020019081526020016000206129e590919063ffffffff16565b905092915050565b600a60009054906101000a900473ffffffffffffffffffffffffffffffffffffffff1673ffffffffffffffffffffffffffffffffffffffff166351cff8d9826040518263ffffffff1660e01b8152600401808273ffffffffffffffffffffffffffffffffffffffff1673ffffffffffffffffffffffffffffffffffffffff168152602001915050600060405180830381600087803b15801561125057600080fd5b505af1158015611264573d6000803e3d6000fd5b5050505050565b61128683838360405180602001604052806000815250611cb6565b505050565b600d5481565b6000806112a88360026129ff90919063ffffffff16565b50905080915050919050565b60006112e482604051806060016040528060298152602001613ca2602991396002612a2e9092919063ffffffff16565b9050919050565b606060098054600181600116156101000203166002900480601f0160208091040260200160405190810160405280929190818152602001828054600181600116156101000203166002900480156113835780601f1061135857610100808354040283529160200191611383565b820191906000526020600020905b81548152906001019060200180831161136657829003601f168201915b5050505050905090565b60008073ffffffffffffffffffffffffffffffffffffffff168273ffffffffffffffffffffffffffffffffffffffff161415611414576040517f08c379a000000000000000000000000000000000000000000000000000000000815260040180806020018281038252602a815260200180613c78602a913960400191505060405180910390fd5b61145b600160008473ffffffffffffffffffffffffffffffffffffffff1673ffffffffffffffffffffffffffffffffffffffff168152602001908152602001600020612a4d565b9050919050565b61146a6125d8565b73ffffffffffffffffffffffffffffffffffffffff16600b60009054906101000a900473ffffffffffffffffffffffffffffffffffffffff1673ffffffffffffffffffffffffffffffffffffffff161461152c576040517f08c379a00000000000000000000000000000000000000000000000000000000081526004018080602001828103825260208152602001807f4f776e61626c653a2063616c6c6572206973206e6f7420746865206f776e657281525060200191505060405180910390fd5b600073ffffffffffffffffffffffffffffffffffffffff16600b60009054906101000a900473ffffffffffffffffffffffffffffffffffffffff1673ffffffffffffffffffffffffffffffffffffffff167f8be0079c531659141344cd1fd0a4f28419497f9722a3daafe3b4186f6b6457e060405160405180910390a36000600b60006101000a81548173ffffffffffffffffffffffffffffffffffffffff021916908373ffffffffffffffffffffffffffffffffffffffff160217905550565b6000600b60009054906101000a900473ffffffffffffffffffffffffffffffffffffffff16905090565b606060078054600181600116156101000203166002900480601f0160208091040260200160405190810160405280929190818152602001828054600181600116156101000203166002900480156116af5780601f10611684576101008083540402835291602001916116af565b820191906000526020600020905b81548152906001019060200180831161169257829003601f168201915b5050505050905090565b6116c16125d8565b73ffffffffffffffffffffffffffffffffffffffff168273ffffffffffffffffffffffffffffffffffffffff161415611762576040517f08c379a00000000000000000000000000000000000000000000000000000000081526004018080602001828103825260198152602001807f4552433732313a20617070726f766520746f2063616c6c65720000000000000081525060200191505060405180910390fd5b806005600061176f6125d8565b73ffffffffffffffffffffffffffffffffffffffff1673ffffffffffffffffffffffffffffffffffffffff16815260200190815260200160002060008473ffffffffffffffffffffffffffffffffffffffff1673ffffffffffffffffffffffffffffffffffffffff16815260200190815260200160002060006101000a81548160ff0219169083151502179055508173ffffffffffffffffffffffffffffffffffffffff1661181c6125d8565b73ffffffffffffffffffffffffffffffffffffffff167f17307eab39ab6107e8899845ad3d59bd9653f200f220920489ca2b5937696c3183604051808215151515815260200191505060405180910390a35050565b600c5481565b600080606083600e600082815260200190815260200160002060030160009054906101000a900460ff16611913576040517f08c379a00000000000000000000000000000000000000000000000000000000081526004018080602001828103825260098152602001807f4e6f7420466f756e64000000000000000000000000000000000000000000000081525060200191505060405180910390fd5b61191b6139ea565b600e60008781526020019081526020016000206040518060800160405290816000820160009054906101000a900473ffffffffffffffffffffffffffffffffffffffff1673ffffffffffffffffffffffffffffffffffffffff1673ffffffffffffffffffffffffffffffffffffffff16815260200160018201548152602001600282018054600181600116156101000203166002900480601f016020809104026020016040519081016040528092919081815260200182805460018160011615610100020316600290048015611a325780601f10611a0757610100808354040283529160200191611a32565b820191906000526020600020905b815481529060010190602001808311611a1557829003601f168201915b505050505081526020016003820160009054906101000a900460ff1615151515815250509050858160200151826040015180905094509450945050509193909250565b60011515600f60009054906101000a900460ff16151514611a9557600080fd5b80600e600082815260200190815260200160002060030160009054906101000a900460ff16611b2c576040517f08c379a00000000000000000000000000000000000000000000000000000000081526004018080602001828103825260098152602001807f4e6f7420466f756e64000000000000000000000000000000000000000000000081525060200191505060405180910390fd5b6000600e600084815260200190815260200160002090508060010154341015611bbd576040517f08c379a00000000000000000000000000000000000000000000000000000000081526004018080602001828103825260138152602001807f596f75722062696420697320746f6f206c6f770000000000000000000000000081525060200191505060405180910390fd5b600c60008154809291906001019190505550611bdb33600c54612a62565b611c83600c54826002018054600181600116156101000203166002900480601f016020809104026020016040519081016040528092919081815260200182805460018160011615610100020316600290048015611c795780601f10611c4e57610100808354040283529160200191611c79565b820191906000526020600020905b815481529060010190602001808311611c5c57829003601f168201915b5050505050612a80565b611cb18160000160009054906101000a900473ffffffffffffffffffffffffffffffffffffffff1634612b0a565b505050565b611cc7611cc16125d8565b836126ae565b611d1c576040517f08c379a0000000000000000000000000000000000000000000000000000000008152600401808060200182810382526031815260200180613dbe6031913960400191505060405180910390fd5b611d2884848484612bc8565b50505050565b6060611d39826125bb565b611d8e576040517f08c379a000000000000000000000000000000000000000000000000000000000815260040180806020018281038252602f815260200180613d6e602f913960400191505060405180910390fd5b6060600860008481526020019081526020016000208054600181600116156101000203166002900480601f016020809104026020016040519081016040528092919081815260200182805460018160011615610100020316600290048015611e375780601f10611e0c57610100808354040283529160200191611e37565b820191906000526020600020905b815481529060010190602001808311611e1a57829003601f168201915b50505050509050600060098054600181600116156101000203166002900490501415611e665780915050612012565b600081511115611f3f576009816040516020018083805460018160011615610100020316600290048015611ed15780601f10611eaf576101008083540402835291820191611ed1565b820191906000526020600020905b815481529060010190602001808311611ebd575b505082805190602001908083835b60208310611f025780518252602082019150602081019050602083039250611edf565b6001836020036101000a03801982511681845116808217855250505050505090500192505050604051602081830303815290604052915050612012565b6009611f4a84612c3a565b6040516020018083805460018160011615610100020316600290048015611fa85780601f10611f86576101008083540402835291820191611fa8565b820191906000526020600020905b815481529060010190602001808311611f94575b505082805190602001908083835b60208310611fd95780518252602082019150602081019050602083039250611fb6565b6001836020036101000a038019825116818451168082178552505050505050905001925050506040516020818303038152906040529150505b919050565b612020336111af565b565b3373ffffffffffffffffffffffffffffffffffffffff16600f60019054906101000a900473ffffffffffffffffffffffffffffffffffffffff1673ffffffffffffffffffffffffffffffffffffffff161461207c57600080fd5b600f60009054906101000a900460ff1615600f60006101000a81548160ff021916908315150217905550565b6000600a60009054906101000a900473ffffffffffffffffffffffffffffffffffffffff1673ffffffffffffffffffffffffffffffffffffffff1663e3a9db1a836040518263ffffffff1660e01b8152600401808273ffffffffffffffffffffffffffffffffffffffff1673ffffffffffffffffffffffffffffffffffffffff16815260200191505060206040518083038186803b15801561214957600080fd5b505afa15801561215d573d6000803e3d6000fd5b505050506040513d602081101561217357600080fd5b81019080805190602001909291905050509050919050565b6000600560008473ffffffffffffffffffffffffffffffffffffffff1673ffffffffffffffffffffffffffffffffffffffff16815260200190815260200160002060008373ffffffffffffffffffffffffffffffffffffffff1673ffffffffffffffffffffffffffffffffffffffff16815260200190815260200160002060009054906101000a900460ff16905092915050565b6122276125d8565b73ffffffffffffffffffffffffffffffffffffffff16600b60009054906101000a900473ffffffffffffffffffffffffffffffffffffffff1673ffffffffffffffffffffffffffffffffffffffff16146122e9576040517f08c379a00000000000000000000000000000000000000000000000000000000081526004018080602001828103825260208152602001807f4f776e61626c653a2063616c6c6572206973206e6f7420746865206f776e657281525060200191505060405180910390fd5b600073ffffffffffffffffffffffffffffffffffffffff168173ffffffffffffffffffffffffffffffffffffffff16141561236f576040517f08c379a0000000000000000000000000000000000000000000000000000000008152600401808060200182810382526026815260200180613ba46026913960400191505060405180910390fd5b8073ffffffffffffffffffffffffffffffffffffffff16600b60009054906101000a900473ffffffffffffffffffffffffffffffffffffffff1673ffffffffffffffffffffffffffffffffffffffff167f8be0079c531659141344cd1fd0a4f28419497f9722a3daafe3b4186f6b6457e060405160405180910390a380600b60006101000a81548173ffffffffffffffffffffffffffffffffffffffff021916908373ffffffffffffffffffffffffffffffffffffffff16021790555050565b60011515600f60009054906101000a900460ff1615151461244f57600080fd5b600082116124c5576040517f08c379a00000000000000000000000000000000000000000000000000000000081526004018080602001828103825260118152602001807f50726963652063616e6e6f74206265203000000000000000000000000000000081525060200191505060405180910390fd5b600d6000815480929190600101919050555060405180608001604052803373ffffffffffffffffffffffffffffffffffffffff16815260200183815260200182815260200160011515815250600e6000600d54815260200190815260200160002060008201518160000160006101000a81548173ffffffffffffffffffffffffffffffffffffffff021916908373ffffffffffffffffffffffffffffffffffffffff160217905550602082015181600101556040820151816002019080519060200190612593929190613a2a565b5060608201518160030160006101000a81548160ff0219169083151502179055509050505050565b60006125d1826002612d6a90919063ffffffff16565b9050919050565b600033905090565b816004600083815260200190815260200160002060006101000a81548173ffffffffffffffffffffffffffffffffffffffff021916908373ffffffffffffffffffffffffffffffffffffffff160217905550808273ffffffffffffffffffffffffffffffffffffffff16612653836112b4565b73ffffffffffffffffffffffffffffffffffffffff167f8c5be1e5ebec7d5bd14f71427d1e84f3dd0314c0f7b2291e5b200ac8c7c3b92560405160405180910390a45050565b60006126a782600001612d84565b9050919050565b60006126b9826125bb565b61270e576040517f08c379a000000000000000000000000000000000000000000000000000000000815260040180806020018281038252602c815260200180613c14602c913960400191505060405180910390fd5b6000612719836112b4565b90508073ffffffffffffffffffffffffffffffffffffffff168473ffffffffffffffffffffffffffffffffffffffff16148061278857508373ffffffffffffffffffffffffffffffffffffffff1661277084610eee565b73ffffffffffffffffffffffffffffffffffffffff16145b806127995750612798818561218b565b5b91505092915050565b8273ffffffffffffffffffffffffffffffffffffffff166127c2826112b4565b73ffffffffffffffffffffffffffffffffffffffff161461282e576040517f08c379a0000000000000000000000000000000000000000000000000000000008152600401808060200182810382526029815260200180613d456029913960400191505060405180910390fd5b600073ffffffffffffffffffffffffffffffffffffffff168273ffffffffffffffffffffffffffffffffffffffff1614156128b4576040517f08c379a0000000000000000000000000000000000000000000000000000000008152600401808060200182810382526024815260200180613bca6024913960400191505060405180910390fd5b6128bf838383612d95565b6128ca6000826125e0565b61291b81600160008673ffffffffffffffffffffffffffffffffffffffff1673ffffffffffffffffffffffffffffffffffffffff168152602001908152602001600020612d9a90919063ffffffff16565b5061296d81600160008573ffffffffffffffffffffffffffffffffffffffff1673ffffffffffffffffffffffffffffffffffffffff168152602001908152602001600020612db490919063ffffffff16565b5061298481836002612dce9092919063ffffffff16565b50808273ffffffffffffffffffffffffffffffffffffffff168473ffffffffffffffffffffffffffffffffffffffff167fddf252ad1be2c89b69c2b068fc378daa952ba7f163c4a11628f55a4df523b3ef60405160405180910390a4505050565b60006129f48360000183612e03565b60001c905092915050565b600080600080612a128660000186612e86565b915091508160001c8160001c8090509350935050509250929050565b6000612a41846000018460001b84612f1f565b60001c90509392505050565b6000612a5b82600001613015565b9050919050565b612a7c828260405180602001604052806000815250613026565b5050565b612a89826125bb565b612ade576040517f08c379a000000000000000000000000000000000000000000000000000000000815260040180806020018281038252602c815260200180613d19602c913960400191505060405180910390fd5b80600860008481526020019081526020016000209080519060200190612b05929190613aaa565b505050565b600a60009054906101000a900473ffffffffffffffffffffffffffffffffffffffff1673ffffffffffffffffffffffffffffffffffffffff1663f340fa0182846040518363ffffffff1660e01b8152600401808273ffffffffffffffffffffffffffffffffffffffff1673ffffffffffffffffffffffffffffffffffffffff1681526020019150506000604051808303818588803b158015612bab57600080fd5b505af1158015612bbf573d6000803e3d6000fd5b50505050505050565b612bd38484846127a2565b612bdf84848484613097565b612c34576040517f08c379a0000000000000000000000000000000000000000000000000000000008152600401808060200182810382526032815260200180613b726032913960400191505060405180910390fd5b50505050565b60606000821415612c82576040518060400160405280600181526020017f30000000000000000000000000000000000000000000000000000000000000008152509050612d65565b600082905060005b60008214612cac578080600101915050600a8281612ca457fe5b049150612c8a565b6060816040519080825280601f01601f191660200182016040528015612ce15781602001600182028038833980820191505090505b50905060006001830390508593505b60008414612d5d57600a8481612d0257fe5b0660300160f81b82828060019003935081518110612d1c57fe5b60200101907effffffffffffffffffffffffffffffffffffffffffffffffffffffffffffff1916908160001a905350600a8481612d5557fe5b049350612cf0565b819450505050505b919050565b6000612d7c836000018360001b6132dc565b905092915050565b600081600001805490509050919050565b505050565b6000612dac836000018360001b6132ff565b905092915050565b6000612dc6836000018360001b6133e7565b905092915050565b6000612dfa846000018460001b8473ffffffffffffffffffffffffffffffffffffffff1660001b613457565b90509392505050565b600081836000018054905011612e64576040517f08c379a0000000000000000000000000000000000000000000000000000000008152600401808060200182810382526022815260200180613b506022913960400191505060405180910390fd5b826000018281548110612e7357fe5b9060005260206000200154905092915050565b60008082846000018054905011612ee8576040517f08c379a0000000000000000000000000000000000000000000000000000000008152600401808060200182810382526022815260200180613ccb6022913960400191505060405180910390fd5b6000846000018481548110612ef957fe5b906000526020600020906002020190508060000154816001015492509250509250929050565b60008084600101600085815260200190815260200160002054905060008114158390612fe6576040517f08c379a00000000000000000000000000000000000000000000000000000000081526004018080602001828103825283818151815260200191508051906020019080838360005b83811015612fab578082015181840152602081019050612f90565b50505050905090810190601f168015612fd85780820380516001836020036101000a031916815260200191505b509250505060405180910390fd5b50846000016001820381548110612ff957fe5b9060005260206000209060020201600101549150509392505050565b600081600001805490509050919050565b6130308383613533565b61303d6000848484613097565b613092576040517f08c379a0000000000000000000000000000000000000000000000000000000008152600401808060200182810382526032815260200180613b726032913960400191505060405180910390fd5b505050565b60006130b88473ffffffffffffffffffffffffffffffffffffffff16613727565b6130c557600190506132d4565b606061325b63150b7a0260e01b6130da6125d8565b888787604051602401808573ffffffffffffffffffffffffffffffffffffffff1673ffffffffffffffffffffffffffffffffffffffff1681526020018473ffffffffffffffffffffffffffffffffffffffff1673ffffffffffffffffffffffffffffffffffffffff16815260200183815260200180602001828103825283818151815260200191508051906020019080838360005b8381101561318a57808201518184015260208101905061316f565b50505050905090810190601f1680156131b75780820380516001836020036101000a031916815260200191505b5095505050505050604051602081830303815290604052907bffffffffffffffffffffffffffffffffffffffffffffffffffffffff19166020820180517bffffffffffffffffffffffffffffffffffffffffffffffffffffffff8381831617835250505050604051806060016040528060328152602001613b72603291398773ffffffffffffffffffffffffffffffffffffffff1661373a9092919063ffffffff16565b9050600081806020019051602081101561327457600080fd5b8101908080519060200190929190505050905063150b7a0260e01b7bffffffffffffffffffffffffffffffffffffffffffffffffffffffff1916817bffffffffffffffffffffffffffffffffffffffffffffffffffffffff191614925050505b949350505050565b600080836001016000848152602001908152602001600020541415905092915050565b600080836001016000848152602001908152602001600020549050600081146133db576000600182039050600060018660000180549050039050600086600001828154811061334a57fe5b906000526020600020015490508087600001848154811061336757fe5b906000526020600020018190555060018301876001016000838152602001908152602001600020819055508660000180548061339f57fe5b600190038181906000526020600020016000905590558660010160008781526020019081526020016000206000905560019450505050506133e1565b60009150505b92915050565b60006133f38383613752565b61344c578260000182908060018154018082558091505060019003906000526020600020016000909190919091505582600001805490508360010160008481526020019081526020016000208190555060019050613451565b600090505b92915050565b60008084600101600085815260200190815260200160002054905060008114156134fe5784600001604051806040016040528086815260200185815250908060018154018082558091505060019003906000526020600020906002020160009091909190915060008201518160000155602082015181600101555050846000018054905085600101600086815260200190815260200160002081905550600191505061352c565b8285600001600183038154811061351157fe5b90600052602060002090600202016001018190555060009150505b9392505050565b600073ffffffffffffffffffffffffffffffffffffffff168273ffffffffffffffffffffffffffffffffffffffff1614156135d6576040517f08c379a00000000000000000000000000000000000000000000000000000000081526004018080602001828103825260208152602001807f4552433732313a206d696e7420746f20746865207a65726f206164647265737381525060200191505060405180910390fd5b6135df816125bb565b15613652576040517f08c379a000000000000000000000000000000000000000000000000000000000815260040180806020018281038252601c8152602001807f4552433732313a20746f6b656e20616c7265616479206d696e7465640000000081525060200191505060405180910390fd5b61365e60008383612d95565b6136af81600160008573ffffffffffffffffffffffffffffffffffffffff1673ffffffffffffffffffffffffffffffffffffffff168152602001908152602001600020612db490919063ffffffff16565b506136c681836002612dce9092919063ffffffff16565b50808273ffffffffffffffffffffffffffffffffffffffff16600073ffffffffffffffffffffffffffffffffffffffff167fddf252ad1be2c89b69c2b068fc378daa952ba7f163c4a11628f55a4df523b3ef60405160405180910390a45050565b600080823b905060008111915050919050565b60606137498484600085613775565b90509392505050565b600080836001016000848152602001908152602001600020541415905092915050565b6060824710156137d0576040517f08c379a0000000000000000000000000000000000000000000000000000000008152600401808060200182810382526026815260200180613bee6026913960400191505060405180910390fd5b6137d985613727565b61384b576040517f08c379a000000000000000000000000000000000000000000000000000000000815260040180806020018281038252601d8152602001807f416464726573733a2063616c6c20746f206e6f6e2d636f6e747261637400000081525060200191505060405180910390fd5b600060608673ffffffffffffffffffffffffffffffffffffffff1685876040518082805190602001908083835b6020831061389b5780518252602082019150602081019050602083039250613878565b6001836020036101000a03801982511681845116808217855250505050505090500191505060006040518083038185875af1925050503d80600081146138fd576040519150601f19603f3d011682016040523d82523d6000602084013e613902565b606091505b509150915061391282828661391e565b92505050949350505050565b6060831561392e578290506139e3565b6000835111156139415782518084602001fd5b816040517f08c379a00000000000000000000000000000000000000000000000000000000081526004018080602001828103825283818151815260200191508051906020019080838360005b838110156139a857808201518184015260208101905061398d565b50505050905090810190601f1680156139d55780820380516001836020036101000a031916815260200191505b509250505060405180910390fd5b9392505050565b6040518060800160405280600073ffffffffffffffffffffffffffffffffffffffff16815260200160008152602001606081526020016000151581525090565b828054600181600116156101000203166002900490600052602060002090601f016020900481019282601f10613a6b57805160ff1916838001178555613a99565b82800160010185558215613a99579182015b82811115613a98578251825591602001919060010190613a7d565b5b509050613aa69190613b2a565b5090565b828054600181600116156101000203166002900490600052602060002090601f016020900481019282601f10613aeb57805160ff1916838001178555613b19565b82800160010185558215613b19579182015b82811115613b18578251825591602001919060010190613afd565b5b509050613b269190613b2a565b5090565b613b4c91905b80821115613b48576000816000905550600101613b30565b5090565b9056fe456e756d657261626c655365743a20696e646578206f7574206f6620626f756e64734552433732313a207472616e7366657220746f206e6f6e20455243373231526563656976657220696d706c656d656e7465724f776e61626c653a206e6577206f776e657220697320746865207a65726f20616464726573734552433732313a207472616e7366657220746f20746865207a65726f2061646472657373416464726573733a20696e73756666696369656e742062616c616e636520666f722063616c6c4552433732313a206f70657261746f7220717565727920666f72206e6f6e6578697374656e7420746f6b656e4552433732313a20617070726f76652063616c6c6572206973206e6f74206f776e6572206e6f7220617070726f76656420666f7220616c6c4552433732313a2062616c616e636520717565727920666f7220746865207a65726f20616464726573734552433732313a206f776e657220717565727920666f72206e6f6e6578697374656e7420746f6b656e456e756d657261626c654d61703a20696e646578206f7574206f6620626f756e64734552433732313a20617070726f76656420717565727920666f72206e6f6e6578697374656e7420746f6b656e4552433732314d657461646174613a2055524920736574206f66206e6f6e6578697374656e7420746f6b656e4552433732313a207472616e73666572206f6620746f6b656e2074686174206973206e6f74206f776e4552433732314d657461646174613a2055524920717565727920666f72206e6f6e6578697374656e7420746f6b656e4552433732313a20617070726f76616c20746f2063757272656e74206f776e65724552433732313a207472616e736665722063616c6c6572206973206e6f74206f776e6572206e6f7220617070726f766564a2646970667358221220c08d478ca1c6269b3852025322ae6316a68f447bbdcb074dd700586c4ee97d7764736f6c63430006020033608060405260006100146100b760201b60201c565b9050806000806101000a81548173ffffffffffffffffffffffffffffffffffffffff021916908373ffffffffffffffffffffffffffffffffffffffff1602179055508073ffffffffffffffffffffffffffffffffffffffff16600073ffffffffffffffffffffffffffffffffffffffff167f8be0079c531659141344cd1fd0a4f28419497f9722a3daafe3b4186f6b6457e060405160405180910390a3506100bf565b600033905090565b610bfc806100ce6000396000f3fe6080604052600436106100555760003560e01c806351cff8d91461005a578063715018a6146100ab5780638da5cb5b146100c2578063e3a9db1a14610119578063f2fde38b1461017e578063f340fa01146101cf575b600080fd5b34801561006657600080fd5b506100a96004803603602081101561007d57600080fd5b81019080803573ffffffffffffffffffffffffffffffffffffffff169060200190929190505050610213565b005b3480156100b757600080fd5b506100c06103e0565b005b3480156100ce57600080fd5b506100d7610568565b604051808273ffffffffffffffffffffffffffffffffffffffff1673ffffffffffffffffffffffffffffffffffffffff16815260200191505060405180910390f35b34801561012557600080fd5b506101686004803603602081101561013c57600080fd5b81019080803573ffffffffffffffffffffffffffffffffffffffff169060200190929190505050610591565b6040518082815260200191505060405180910390f35b34801561018a57600080fd5b506101cd600480360360208110156101a157600080fd5b81019080803573ffffffffffffffffffffffffffffffffffffffff1690602001909291905050506105da565b005b610211600480360360208110156101e557600080fd5b81019080803573ffffffffffffffffffffffffffffffffffffffff1690602001909291905050506107e7565b005b61021b61099c565b73ffffffffffffffffffffffffffffffffffffffff166000809054906101000a900473ffffffffffffffffffffffffffffffffffffffff1673ffffffffffffffffffffffffffffffffffffffff16146102dc576040517f08c379a00000000000000000000000000000000000000000000000000000000081526004018080602001828103825260208152602001807f4f776e61626c653a2063616c6c6572206973206e6f7420746865206f776e657281525060200191505060405180910390fd5b6000600160008373ffffffffffffffffffffffffffffffffffffffff1673ffffffffffffffffffffffffffffffffffffffff1681526020019081526020016000205490506000600160008473ffffffffffffffffffffffffffffffffffffffff1673ffffffffffffffffffffffffffffffffffffffff1681526020019081526020016000208190555061038e818373ffffffffffffffffffffffffffffffffffffffff166109a490919063ffffffff16565b8173ffffffffffffffffffffffffffffffffffffffff167f7084f5476618d8e60b11ef0d7d3f06914655adb8793e28ff7f018d4c76d505d5826040518082815260200191505060405180910390a25050565b6103e861099c565b73ffffffffffffffffffffffffffffffffffffffff166000809054906101000a900473ffffffffffffffffffffffffffffffffffffffff1673ffffffffffffffffffffffffffffffffffffffff16146104a9576040517f08c379a00000000000000000000000000000000000000000000000000000000081526004018080602001828103825260208152602001807f4f776e61626c653a2063616c6c6572206973206e6f7420746865206f776e657281525060200191505060405180910390fd5b600073ffffffffffffffffffffffffffffffffffffffff166000809054906101000a900473ffffffffffffffffffffffffffffffffffffffff1673ffffffffffffffffffffffffffffffffffffffff167f8be0079c531659141344cd1fd0a4f28419497f9722a3daafe3b4186f6b6457e060405160405180910390a360008060006101000a81548173ffffffffffffffffffffffffffffffffffffffff021916908373ffffffffffffffffffffffffffffffffffffffff160217905550565b60008060009054906101000a900473ffffffffffffffffffffffffffffffffffffffff16905090565b6000600160008373ffffffffffffffffffffffffffffffffffffffff1673ffffffffffffffffffffffffffffffffffffffff168152602001908152602001600020549050919050565b6105e261099c565b73ffffffffffffffffffffffffffffffffffffffff166000809054906101000a900473ffffffffffffffffffffffffffffffffffffffff1673ffffffffffffffffffffffffffffffffffffffff16146106a3576040517f08c379a00000000000000000000000000000000000000000000000000000000081526004018080602001828103825260208152602001807f4f776e61626c653a2063616c6c6572206973206e6f7420746865206f776e657281525060200191505060405180910390fd5b600073ffffffffffffffffffffffffffffffffffffffff168173ffffffffffffffffffffffffffffffffffffffff161415610729576040517f08c379a0000000000000000000000000000000000000000000000000000000008152600401808060200182810382526026815260200180610b676026913960400191505060405180910390fd5b8073ffffffffffffffffffffffffffffffffffffffff166000809054906101000a900473ffffffffffffffffffffffffffffffffffffffff1673ffffffffffffffffffffffffffffffffffffffff167f8be0079c531659141344cd1fd0a4f28419497f9722a3daafe3b4186f6b6457e060405160405180910390a3806000806101000a81548173ffffffffffffffffffffffffffffffffffffffff021916908373ffffffffffffffffffffffffffffffffffffffff16021790555050565b6107ef61099c565b73ffffffffffffffffffffffffffffffffffffffff166000809054906101000a900473ffffffffffffffffffffffffffffffffffffffff1673ffffffffffffffffffffffffffffffffffffffff16146108b0576040517f08c379a00000000000000000000000000000000000000000000000000000000081526004018080602001828103825260208152602001807f4f776e61626c653a2063616c6c6572206973206e6f7420746865206f776e657281525060200191505060405180910390fd5b600034905061090781600160008573ffffffffffffffffffffffffffffffffffffffff1673ffffffffffffffffffffffffffffffffffffffff16815260200190815260200160002054610ade90919063ffffffff16565b600160008473ffffffffffffffffffffffffffffffffffffffff1673ffffffffffffffffffffffffffffffffffffffff168152602001908152602001600020819055508173ffffffffffffffffffffffffffffffffffffffff167f2da466a7b24304f47e87fa2e1e5a81b9831ce54fec19055ce277ca2f39ba42c4826040518082815260200191505060405180910390a25050565b600033905090565b80471015610a1a576040517f08c379a000000000000000000000000000000000000000000000000000000000815260040180806020018281038252601d8152602001807f416464726573733a20696e73756666696369656e742062616c616e636500000081525060200191505060405180910390fd5b60008273ffffffffffffffffffffffffffffffffffffffff168260405180600001905060006040518083038185875af1925050503d8060008114610a7a576040519150601f19603f3d011682016040523d82523d6000602084013e610a7f565b606091505b5050905080610ad9576040517f08c379a000000000000000000000000000000000000000000000000000000000815260040180806020018281038252603a815260200180610b8d603a913960400191505060405180910390fd5b505050565b600080828401905083811015610b5c576040517f08c379a000000000000000000000000000000000000000000000000000000000815260040180806020018281038252601b8152602001807f536166654d6174683a206164646974696f6e206f766572666c6f77000000000081525060200191505060405180910390fd5b809150509291505056fe4f776e61626c653a206e6577206f776e657220697320746865207a65726f2061646472657373416464726573733a20756e61626c6520746f2073656e642076616c75652c20726563697069656e74206d61792068617665207265766572746564a2646970667358221220f8a9add4551e7f7717b6aed4db0e8890fd5d280366fcd68fed767ad6bfa8007e64736f6c63430006020033",
  "source": "// SPDX-License-Identifier: MIT\npragma solidity >=0.4.22 <0.8.0;\n\n/// @title Asset & Escrow \n/// @author Liam Grist\n/// @notice You can use this contract for only the most basic simulation\n/// @dev Need to configure IPFS with Infura node\n\nimport \"@openzeppelin/contracts/token/ERC721/ERC721.sol\";\nimport \"@openzeppelin/contracts/payment/PullPayment.sol\";\nimport \"@openzeppelin/contracts/access/Ownable.sol\";\n\n\n    /// @notice Calculate tree age in years, rounded up, for live trees\n    /// @dev The Alexandr N. Tetearing algorithm could increase precision\n    /// @notice The number of rings from dendrochronological sample\n    /// @notice age in years, rounded up for passetial years\n\n/// @notice provide token IDs for when item is purchased. \n/// @notice provide token ID for item when uploaded.\n/// @notice create mapping with a key value of the item ID. Set mapping as private to not expose the ID. \n/// @notice if the item exists.\ncontract DigitalAsset is ERC721, PullPayment, Ownable {\n    uint256 public _tokenIds; \n    uint256 public _assetItemIds; \n    mapping(uint256 => AssetItem) private _assetItems; \n    bool isActive = true; \n    address admin;\n\n    struct AssetItem {\n        address seller;\n        uint256 price;\n        string tokenURI;\n        bool exists;\n    }\n\n    constructor() public ERC721(\"DigitalAsset\", \"ABC\") {\n        admin = msg.sender;\n    }\n\n/// @notice check if item exists. If the fuction does not return the passed in item ID, then revert the call. \n/// @notice item ID or error\n    modifier assetItemExist(uint256 id) { \n        require(_assetItems[id].exists, \"Not Found\");\n        _;\n    }\n\n/// @notice seller invokes a public function for adding an item with a price and a tokenURI\n/// @notice check if seller has given a price for the item\n/// @notice create new item object with the item ID value and pass in the parameters\n/// @notice increment item ID \n    function addAssetItem( uint256 price, string memory tokenURI) \n        public\n        contractIsActive\n    {\n        require(price > 0, \"Price cannot be 0\"); \n\n        _assetItemIds++;  \n        _assetItems[_assetItemIds] = AssetItem(msg.sender, price, tokenURI, true); \n    }\n\n/// @notice users invoke a public function to get the items from the mapping with passed in ID. If an item object is found, unwrap it and return the data. \n/// @notice integers and string for the ID\n\n    function getAssetItem(uint256 id)\n        public\n        view\n        assetItemExist(id)\n        returns (\n            uint256,\n            uint256,\n            string memory\n        )\n    {\n        AssetItem memory assetItem = _assetItems[id];\n        return (id, assetItem.price, assetItem.tokenURI);\n    }\n/// @notice purchase item, passing in the price and item ID. Make public and payable to enable buyer to send ether to the function. \n/// @notice get the item object with the passed in item ID and check if exists, then check if the buyer has sent the required amount of ether.\n/// @notice return the token ID, incremented as a new ID\n/// @notice mint the image and pass the resulting token to the buyer\n/// @notice set the token URI as the IPFS URL of the item\n/// @notice call the pull payment contract to safely transfer and store the incoming payment to an escrow contract\n/// @notice for the tranfer is the destination sellers address and the value\n    function purchaseAssetItem(uint256 assetItemId)\n        external\n        payable\n        contractIsActive\n        assetItemExist(assetItemId)\n    {\n        AssetItem storage assetItem = _assetItems[assetItemId];\n\n        require(msg.value >= assetItem.price, \"Your bid is too low\");\n\n        _tokenIds++;\n\n        _safeMint(msg.sender, _tokenIds);\n        _setTokenURI(_tokenIds, assetItem.tokenURI);\n        _asyncTransfer(assetItem.seller, msg.value);\n    }\n/// @notice allow the seller to get and withdraw the payments made in escrow to the contract \n    function getPayments() external {\n        withdrawPayments(msg.sender);\n    }\n\n    \n/// @notice allow the admin/owner of the contract to turn the availability of purchasing payments on or off\n    function toggleCircuitBreaker() external {\n        require(admin == msg.sender);\n        isActive = !isActive;\n    }\n    modifier contractIsActive() {\n        require(isActive == true);\n        _;\n    }\n\n\n}",
  "sourcePath": "/Users/liamgrist/DEV/project-6-ipfs-dapp/src/contracts/DigitalAsset.sol",
  "compiler": {
    "name": "solc",
    "version": "0.6.2+commit.bacdbe57.Emscripten.clang"
  },
  "schemaVersion": "3.3.3",
  "updatedAt": "2021-01-08T07:29:48.460Z",
  "networkType": "ethereum",
  "devdoc": {
    "details": "The Alexandr N. Tetearing algorithm could increase precision",
    "methods": {
      "approve(address,uint256)": {
        "details": "See {IERC721-approve}."
      },
      "balanceOf(address)": {
        "details": "See {IERC721-balanceOf}."
      },
      "baseURI()": {
        "details": "Returns the base URI set via {_setBaseURI}. This will be automatically added as a prefix in {tokenURI} to each token's URI, or to the token ID if no specific URI is set for that token ID."
      },
      "getApproved(uint256)": {
        "details": "See {IERC721-getApproved}."
      },
      "isApprovedForAll(address,address)": {
        "details": "See {IERC721-isApprovedForAll}."
      },
      "name()": {
        "details": "See {IERC721Metadata-name}."
      },
      "owner()": {
        "details": "Returns the address of the current owner."
      },
      "ownerOf(uint256)": {
        "details": "See {IERC721-ownerOf}."
      },
      "payments(address)": {
        "details": "Returns the payments owed to an address.",
        "params": {
          "dest": "The creditor's address."
        }
      },
      "renounceOwnership()": {
        "details": "Leaves the contract without owner. It will not be possible to call `onlyOwner` functions anymore. Can only be called by the current owner.     * NOTE: Renouncing ownership will leave the contract without an owner, thereby removing any functionality that is only available to the owner."
      },
      "safeTransferFrom(address,address,uint256)": {
        "details": "See {IERC721-safeTransferFrom}."
      },
      "safeTransferFrom(address,address,uint256,bytes)": {
        "details": "See {IERC721-safeTransferFrom}."
      },
      "setApprovalForAll(address,bool)": {
        "details": "See {IERC721-setApprovalForAll}."
      },
      "supportsInterface(bytes4)": {
        "details": "See {IERC165-supportsInterface}.     * Time complexity O(1), guaranteed to always use less than 30 000 gas."
      },
      "symbol()": {
        "details": "See {IERC721Metadata-symbol}."
      },
      "tokenByIndex(uint256)": {
        "details": "See {IERC721Enumerable-tokenByIndex}."
      },
      "tokenOfOwnerByIndex(address,uint256)": {
        "details": "See {IERC721Enumerable-tokenOfOwnerByIndex}."
      },
      "tokenURI(uint256)": {
        "details": "See {IERC721Metadata-tokenURI}."
      },
      "totalSupply()": {
        "details": "See {IERC721Enumerable-totalSupply}."
      },
      "transferFrom(address,address,uint256)": {
        "details": "See {IERC721-transferFrom}."
      },
      "transferOwnership(address)": {
        "details": "Transfers ownership of the contract to a new account (`newOwner`). Can only be called by the current owner."
      },
      "withdrawPayments(address)": {
        "details": "Withdraw accumulated payments, forwarding all gas to the recipient.     * Note that _any_ account can call this function, not just the `payee`. This means that contracts unaware of the `PullPayment` protocol can still receive funds this way, by having a separate account call {withdrawPayments}.     * WARNING: Forwarding all gas opens the door to reentrancy vulnerabilities. Make sure you trust the recipient, or are either following the checks-effects-interactions pattern or using {ReentrancyGuard}.",
        "params": {
          "payee": "Whose payments will be withdrawn."
        }
      }
    }
  },
  "userdoc": {
    "methods": {
      "addAssetItem(uint256,string)": {
        "notice": "seller invokes a public function for adding an item with a price and a tokenURIcheck if seller has given a price for the itemcreate new item object with the item ID value and pass in the parametersincrement item ID "
      },
      "getAssetItem(uint256)": {
        "notice": "users invoke a public function to get the items from the mapping with passed in ID. If an item object is found, unwrap it and return the data. integers and string for the ID"
      },
      "getPayments()": {
        "notice": "allow the seller to get and withdraw the payments made in escrow to the contract "
      },
      "purchaseAssetItem(uint256)": {
        "notice": "purchase item, passing in the price and item ID. Make public and payable to enable buyer to send ether to the function. get the item object with the passed in item ID and check if exists, then check if the buyer has sent the required amount of ether.return the token ID, incremented as a new IDmint the image and pass the resulting token to the buyerset the token URI as the IPFS URL of the itemcall the pull payment contract to safely transfer and store the incoming payment to an escrow contractfor the tranfer is the destination sellers address and the value"
      },
      "toggleCircuitBreaker()": {
        "notice": "allow the admin/owner of the contract to turn the availability of purchasing payments on or off"
      }
    },
    "notice": "Calculate tree age in years, rounded up, for live treesThe number of rings from dendrochronological sampleage in years, rounded up for passetial yearsprovide token IDs for when item is purchased. provide token ID for item when uploaded.create mapping with a key value of the item ID. Set mapping as private to not expose the ID. if the item exists."
  }
}